:100000000C942A000C947D030C9447000C94470038
:100010000C9447000C9447000C9447000C94470044
:100020000C9447000C9447000C9447000C94470034
:100030000C9447000C941B030C9447000C9447004D
:100040000C9447000C9447000C9447000C94470014
:100050000C94470011241FBECFE5D8E0DEBFCDBF12
:1000600013E0A0E6B0E0E2EFF8E002C005900D92E8
:10007000A233B107D9F713E0A2E3B3E001C01D92A8
:10008000AD37B107E1F70E9498020C9477040C9405
:100090000000DF93CF930F92CDB7DEB76983B9012C
:1000A000298130E002C0359527954A95E2F7482F1F
:1000B00050E020FD1DC0FA01EE0FFF1FDF01A15926
:1000C000BC4F8D919C911197019611969C938E93A4
:1000D000E15CFC4F11821082681779071CF5FA0168
:1000E000E758FC4F80818823D9F481E080831BC0CE
:1000F000FA01EE0FFF1FDF01A15CBC4F8D919C91B7
:100100001197019611969C938E93E159FC4F1182A1
:1001100010826817790734F447585C4FFA0110824F
:100120001D921C9280E00F90CF91DF910895E09195
:100130003603F0913703208181E090E0009039038D
:1001400002C0880F991F0A94E2F7282B2083208190
:100150008095822380830895E0913603F0913703E0
:10016000208181E090E000903A0302C0880F991F3F
:100170000A94E2F7282B20832081809582238083B4
:100180000895AF92BF92CF92DF92EF92FF920F93BA
:100190001F93CF93DF93009136031091370321E033
:1001A00030E00090380302C0220F331F0A94E2F7B8
:1001B000E22EF22EF094C7E0D0E021E0A22EB12C86
:1001C000C82EDD2495010C2E02C0220F331F0A9485
:1001D000E2F7C9018C219D218217930721F4F801D0
:1001E00080818E2903C0F80180818F2180830E9445
:1001F00097002197FFEFCF3FDF0721F70E94AC0068
:10020000F8018081F822F082DF91CF911F910F9148
:10021000FF90EF90DF90CF90BF90AF900895E09166
:100220003603F0913703208181E090E000903D0398
:1002300002C0880F991F0A94E2F7282B2083A0E4BC
:10024000BFE11197F1F72081809582238083089583
:10025000E0913603F0913703208141E050E0CA017C
:1002600000903C0302C0880F991F0A94E2F7282BE4
:1002700020832081CA0100903B0302C0880F991F90
:100280000A94E2F780958223808300903E0302C0A7
:10029000440F551F0A94E2F7808190E08423952350
:1002A000892BD1F708951F93182F0E942801E09100
:1002B0003603F0913703408121E030E0C90100901E
:1002C0003C0302C0880F991F0A94E2F780958423AB
:1002D0008083808100903B0302C0220F331F0A9469
:1002E000E2F7822B8083812F0E94C1000E940F01C0
:1002F0001F9108951F93182F0E942801E091360343
:10030000F0913703408121E030E0C90100903C03C7
:1003100002C0880F991F0A94E2F700903B0302C0C5
:10032000220F331F0A94E2F7822B80958423808367
:10033000812F0E94C1000E940F011F91089581E04A
:100340000E947A0184EF91E020E931E0F9013197D0
:10035000F1F70197D9F782E00E947A0184EF91E0EA
:1003600020E931E0F9013197F1F70197D9F71092BF
:100370003203089580580E947A0108950F931F93C5
:10038000CF93DF938C01C0E0D0E00DC0C031D10528
:1003900020F0CE01C0960E94BA01F80181918F0130
:1003A0000E9453012196F8018081882379F71092E9
:1003B0003203DF91CF911F910F910895AF92CF92A9
:1003C000EF920F9390933703809336036093380333
:1003D0004093390320933A0300933B03E0923C039C
:1003E000C0923D03A0923E0380E69AEE0197F1F79A
:1003F00080E30E947A0180E29EE40197F1F780E3B6
:100400000E947A0188E592E00197F1F780E30E946B
:100410007A0180E49FE10197F1F788E30E947A0175
:100420000E949F0186E00E947A018CE00E947A017E
:100430000F91EF90CF90AF9008951F93182F809158
:1004400032031817B1F11330C1F0143028F4113011
:1004500051F0123031F50CC01530C9F0153090F064
:100460001630F9F419C00E949F0180E690E01DC08B
:100470000E949F018DE790E018C00E949F0189E9CA
:1004800090E013C00E949F0185EB90E00EC00E9497
:100490009F0182ED90E009C00E949F018EEE90E0E6
:1004A00004C00E949F018DE091E00E94BE01109364
:1004B00032031F91089580B58F7B80BD80B58F7703
:1004C00080BD10BC82E289B988E18AB986E880BD26
:1004D00082E08BB9579A08955D9BFECF8CB9089541
:1004E000FC0104C05D9BFECF8CB9319680818823CE
:1004F000C9F708955D9BFECF8CE08CB95D9BFECF64
:100500008DE08CB908952091330330E0F901EE0FAE
:10051000FF1FEE0FFF1FE20FF31FE80FF11DEE0F9D
:10052000FF1FE455FD4F818190819093330308951F
:10053000AF92CF92EF920F93CF93DF93C0E9D1E0C8
:1005400080913303873048F4833008F05BC08130FA
:10055000A9F0823008F03EC055C0893009F440C08F
:100560008A3030F48730C1F1883009F041C036C09C
:100570008A30C1F18B3009F03BC038C087B38E6F31
:1005800087BBB89881B3837881BB82B38C6782BB09
:1005900088E390E063E045E024E006E0E7E0EE2E4B
:1005A00072E0C72EAA240E94DE010E945B027894AA
:1005B0008BB780648BBF85B78C7F85BF83E191E06B
:1005C0000E94BE0188E99AE3FE013197F1F7019795
:1005D000D9F718C081E007C086E005C082E003C0FB
:1005E00083E001C084E00E941D020CC085E0FBCFC7
:1005F00083E291E00E9470020E949F0182E591E0F7
:100600000E94BE0180913503882391F480913303C9
:1006100090E0FC0163E0EE0FFF1F6A95E1F7880FA1
:10062000991FE80FF91FE455FD4F80858093330330
:100630001092350385CF1F920F920FB60F9211249F
:100640002F933F934F935F936F937F938F939F93DA
:10065000AF93BF93EF93FF93A0917703B09178038B
:100660008CB1FD01E95BFC4F80835D9BFECF8CB9B3
:100670008D3019F0A732B105D0F0A95BBC4F1C92A8
:100680000E949F0187E493E00E94BE010E947A02CB
:100690008091770390917803879720F083E791E02A
:1006A0000E947002109278031092770305C0119691
:1006B000B0937803A0937703209177033091780368
:1006C000F901EA5BFC4F8081883031F422503040E0
:1006D0003093780320937703FF91EF91BF91AF910F
:1006E0009F918F917F916F915F914F913F912F914A
:1006F0000F900FBE0F901F9018951F920F920FB67C
:100700000F9211242F933F934F935F936F937F9397
:100710008F939F93AF93BF93EF93FF938CED95E0EF
:1007200020E931E0F9013197F1F70197D9F781E03C
:1007300080933503869904C020E081E090E003C0F7
:100740002FEF80E090E0859902C0019621E0849926
:1007500002C0019622E0839902C0019623E0823014
:1007600091052CF00E949F0184E891E006C0892B3E
:1007700039F40E949F0185E991E00E94BE01A6C064
:10078000243008F0A3C08091330390E0FC01EE0F09
:10079000FF1FEE0FFF1FE80FF91FE20FF11DEE0F15
:1007A000FF1FE455FD4F9181808180933303923088
:1007B00051F1933030F4992369F0913009F073C00E
:1007C0000EC0943009F447C0943088F1953009F098
:1007D0006AC055C086EA91E00E94700277C088EB3B
:1007E00091E00E9470020E949F0189EC91E00E94BA
:1007F000BE0180E197E220E931E0F9013197F1F79C
:100800000197D9F763C089ED91E00E9470020E94C0
:100810009F018CEE91E00E94BE0180E197E220E909
:1008200031E0F9013197F1F70197D9F74FC083E033
:1008300092E00E9470020E949F0189E192E00E9472
:10084000BE0180E197E220E931E0F9013197F1F74B
:100850000197D9F73BC080E392E00E9470020E94AA
:100860009F0187E492E00E94BE0180E197E220E9C7
:1008700031E0F9013197F1F70197D9F727C08EE5FB
:1008800092E00E9470020E949F0183E792E00E9422
:10089000BE0180E197E220E931E0F9013197F1F7FB
:1008A0000197D9F713C08AE892E00E9470020E9473
:1008B0009F0189E992E00E94BE0180E197E220E970
:1008C00031E0F9013197F1F70197D9F7FF91EF91F5
:1008D000BF91AF919F918F917F916F915F914F9158
:1008E0003F912F910F900FBE0F901F901895F89485
:0208F000FFCF38
:1008F2004D454E5520202020202020202020202041
:10090200426567696E204C6F672E2E2E004D454E54
:1009120055202020202020202020202020536574D4
:1009220074696E6773203E3E004D454E552020206F
:100932002020202020202020205472616E736665C2
:10094200722E2E2E004D454E552020202020202094
:10095200202020202043616C6962726174652E2E12
:100962002E004D454E5520202020202020202020E2
:1009720020205365742054696D652E2E2E0053611C
:1009820076653A202773656C656374272020446579
:100992006C6574653A20276261636B270045727249
:1009A2006F7200446174616C6F67676572205631C3
:1009B2002E3000466174616C204572726F723A206B
:1009C2004F75747369646520646566696E65642039
:1009D200737461746520646566696E6974696F6EAB
:1009E2007300466174616C204572726F723A202006
:1009F200202073776974636820737461746520655D
:100A0200727200427566666572204F766572666C18
:100A12006F7721004552524F52202D203E204275C1
:100A220074746F6E004552524F52202D203C20426A
:100A32007574746F6E004E494C414354494F4E20B9
:100A420043616C6C65640A004C6F675F7361766525
:100A52002043616C6C65640A004C6F675F7361765A
:100A6200652043616C6C6564004C6F675F64656C04
:100A72006574652043616C6C65640A004C6F675F46
:100A820064656C65746520202020202043616C6CB5
:100A92006564004D656E755F7472616E7366657232
:100AA2002043616C6C65640A004D656E755F7472FB
:100AB200616E7366657220202043616C6C65640010
:100AC2004D656E755F63616C696272617465204326
:100AD200616C6C65640A004D656E755F63616C697B
:100AE2006272617465202043616C6C6564004D65BF
:100AF2006E755F73657454696D652043616C6C65D6
:100B0200640A004D656E755F73657454696D652086
:100B120020202043616C6C65640064656661756CBD
:100B220074204572726F720A004E494C4143544917
:100B32004F4E2043616C6C656400D00700000000DA
:100B4200000000000100010001000100010002009C
:100B52000800090003000200020003000300030072
:100B62000300040004000400040004000500050062
:100B72000500050005000600060006000600070045
:100B82000400070007000201020207000900020038
:100B92000A00080008000200080002030900090018
:100BA2000B000B00080408000A000A000A000805EE
:100BB20008000B00000102030405060706050403F2
:020BC20002002F
:00000001FF
