:100000000C942A000C9447000C9447000C94470071
:100010000C9447000C9447000C9447000C94470044
:100020000C9447000C9447000C9447000C94470034
:100030000C9447000C9447000C9447000C94470024
:100040000C9447000C9447000C9447000C94470014
:100050000C94470011241FBECFE5D8E0DEBFCDBF12
:1000600010E0A6E6B0E001C01D92A038B107E1F7AC
:1000700010E0A0E6B0E0E0E4F5E002C005900D92EB
:10008000A636B107D9F70E947F000C949E020C940B
:10009000000088B392E0892788BB80916A00909124
:1000A0006B00892B61F05D9BFECF1CB85D9BFECF82
:1000B0001CB85D9BFECF1CB85D9BFECF1CB808959D
:1000C0005D9BFECF8CB90895FC0104C05D9BFECF03
:1000D0008CB9319680818823C9F70895AC0120E05E
:1000E00030E009C05D9BFECFFA01E20FF31F808173
:1000F0008CB92F5F3F4F26173707A4F308952F922F
:100100003F924F925F926F927F928F929F92AF92A7
:10011000BF92CF92DF92EF92FF920F931F93CF93F4
:10012000DF93329A3D9A379A369A8EB581608EBDAA
:1001300087B3866087BB88B3897F88BBB898C09A2D
:1001400080B58F7B80BD80B58F7780BD10BC8CE083
:1001500089B988E18AB986E880BD82E08BB98AE1F5
:1001600094E00E94990180936C0090936D00CC24E0
:10017000DD24AA24BB2400E010E08824992466240E
:100180007724C0E0D0E03FEF232E312C412C512CBE
:1001900006C0CC24DD2466247724C0E0D0E08CB5F2
:1001A0009DB581519742F8F01DBC1CBC8091660042
:1001B00090916700A0916800B09169000196A11D1F
:1001C000B11D8093660090936700A0936800B09380
:1001D00069000894A11CB11C81E1A81687E2B80649
:1001E00010F0AA24BB245F9B08C08CB1813611F4A7
:1001F000C29A03C0823609F4C298349B61C0C5011B
:1002000083709070892B09F05BC00A151B0509F4F7
:1002100057C080916A0090916B00892B09F450C0FF
:1002200085B15D9BFECF8CB992E08916910471F582
:10023000E0906600F09067000091680010916900FE
:10024000E8E7F0E040E050E0D201C101042E04C034
:10025000880F991FAA1FBB1F0A94D2F78E219F21D6
:10026000A023B123042E04C0B695A7959795879532
:100270000A94D2F78193485F5F4F4032510521F7CE
:1002800088E790E064E070E00E946E00349881148A
:10029000910431F420E227B921E0822E912C0EC086
:1002A00081E08816910431F491E297B992E0892EA9
:1002B000912C04C022E227B988249924369A85011A
:1002C000B0992EC02196C536D1051CF4CC24DD246E
:1002D00066CF6114710419F0CC24DD245ECF8091C7
:1002E0006A0090916B00892B29F010926B0010929C
:1002F0006A0006C081E090E090936B0080936A00F2
:1003000010926600109267001092680010926900C7
:100310000E944900CC24DD2481E0682E712C3DCF61
:100320000894C11CD11C95E6C916D1040CF031CF3C
:1003300034CFCF93DF93BC018230910510F462E09B
:1003400070E0A0917E00B0917F00ED01E0E0F0E070
:1003500040E050E021C0888199818617970769F4B1
:100360008A819B81309719F09383828304C0909394
:100370007F0080937E00FE0134C06817790738F44F
:100380004115510519F08417950708F4AC01FE01D9
:100390008A819B819C01E9012097E9F6411551056D
:1003A000A9F1CA01861B970B049708F4BA01E0E093
:1003B000F0E02AC08D919C91119784179507F9F46C
:1003C0006417750781F412968D919C91139730975D
:1003D00019F09383828304C090937F0080937E0002
:1003E000FD0132964FC0CA01861B970BFD01E80F35
:1003F000F91F6193719302978D939C9343C0FD0104
:10040000828193819C01D9011097A1F680917C0093
:1004100090917D00892B41F480916200909163005E
:1004200090937D0080937C00409164005091650022
:100430004115510541F44DB75EB780916000909130
:100440006100481B590B20917C0030917D002417DE
:100450003507B0F4CA01821B930B8617970780F00B
:10046000AB014E5F5F4F8417950750F0420F531F4B
:1004700050937D0040937C00F9016193719302C019
:10048000E0E0F0E0CF01DF91CF910895CF93DF93CB
:10049000009709F450C0EC0122971B821A82A091A8
:1004A0007E00B0917F00109709F140E050E0AC175A
:1004B000BD0708F1BB83AA83FE0121913191E20FB0
:1004C000F31FAE17BF0779F48D919C911197280FF8
:1004D000391F2E5F3F4F3983288312968D919C914F
:1004E00013979B838A834115510571F4D0937F0044
:1004F000C0937E0020C012968D919C911397AD0100
:10050000009711F0DC01D3CFFA01D383C28321918C
:100510003191E20FF31FCE17DF0769F488819981CB
:10052000280F391F2E5F3F4FFA01318320838A81C4
:100530009B8193838283DF91CF910895F894FFCFBD
:0605400020008000000015
:00000001FF
